{
  "_format": "hh-sol-artifact-1",
  "contractName": "PromptNFT",
  "sourceName": "contracts/promptnft.sol",
  "abi": [
    {
      "inputs": [],
      "stateMutability": "nonpayable",
      "type": "constructor"
    },
    {
      "anonymous": false,
      "inputs": [
        {
          "indexed": true,
          "internalType": "address",
          "name": "owner",
          "type": "address"
        },
        {
          "indexed": true,
          "internalType": "address",
          "name": "approved",
          "type": "address"
        },
        {
          "indexed": true,
          "internalType": "uint256",
          "name": "tokenId",
          "type": "uint256"
        }
      ],
      "name": "Approval",
      "type": "event"
    },
    {
      "anonymous": false,
      "inputs": [
        {
          "indexed": true,
          "internalType": "address",
          "name": "owner",
          "type": "address"
        },
        {
          "indexed": true,
          "internalType": "address",
          "name": "operator",
          "type": "address"
        },
        {
          "indexed": false,
          "internalType": "bool",
          "name": "approved",
          "type": "bool"
        }
      ],
      "name": "ApprovalForAll",
      "type": "event"
    },
    {
      "anonymous": false,
      "inputs": [
        {
          "indexed": false,
          "internalType": "uint256",
          "name": "_fromTokenId",
          "type": "uint256"
        },
        {
          "indexed": false,
          "internalType": "uint256",
          "name": "_toTokenId",
          "type": "uint256"
        }
      ],
      "name": "BatchMetadataUpdate",
      "type": "event"
    },
    {
      "anonymous": false,
      "inputs": [
        {
          "indexed": false,
          "internalType": "uint256",
          "name": "_tokenId",
          "type": "uint256"
        }
      ],
      "name": "MetadataUpdate",
      "type": "event"
    },
    {
      "anonymous": false,
      "inputs": [
        {
          "indexed": true,
          "internalType": "address",
          "name": "from",
          "type": "address"
        },
        {
          "indexed": true,
          "internalType": "address",
          "name": "to",
          "type": "address"
        },
        {
          "indexed": true,
          "internalType": "uint256",
          "name": "tokenId",
          "type": "uint256"
        }
      ],
      "name": "Transfer",
      "type": "event"
    },
    {
      "inputs": [
        {
          "internalType": "address",
          "name": "to",
          "type": "address"
        },
        {
          "internalType": "uint256",
          "name": "tokenId",
          "type": "uint256"
        }
      ],
      "name": "approve",
      "outputs": [],
      "stateMutability": "nonpayable",
      "type": "function"
    },
    {
      "inputs": [
        {
          "internalType": "address",
          "name": "user",
          "type": "address"
        },
        {
          "internalType": "string",
          "name": "cid",
          "type": "string"
        }
      ],
      "name": "awardItem",
      "outputs": [
        {
          "internalType": "uint256",
          "name": "",
          "type": "uint256"
        }
      ],
      "stateMutability": "nonpayable",
      "type": "function"
    },
    {
      "inputs": [
        {
          "internalType": "address",
          "name": "owner",
          "type": "address"
        }
      ],
      "name": "balanceOf",
      "outputs": [
        {
          "internalType": "uint256",
          "name": "",
          "type": "uint256"
        }
      ],
      "stateMutability": "view",
      "type": "function"
    },
    {
      "inputs": [
        {
          "internalType": "uint256",
          "name": "tokenId",
          "type": "uint256"
        }
      ],
      "name": "getApproved",
      "outputs": [
        {
          "internalType": "address",
          "name": "",
          "type": "address"
        }
      ],
      "stateMutability": "view",
      "type": "function"
    },
    {
      "inputs": [
        {
          "internalType": "string",
          "name": "cid",
          "type": "string"
        }
      ],
      "name": "getOnwerByCID",
      "outputs": [
        {
          "internalType": "address",
          "name": "",
          "type": "address"
        }
      ],
      "stateMutability": "view",
      "type": "function"
    },
    {
      "inputs": [
        {
          "internalType": "address",
          "name": "owner",
          "type": "address"
        },
        {
          "internalType": "address",
          "name": "operator",
          "type": "address"
        }
      ],
      "name": "isApprovedForAll",
      "outputs": [
        {
          "internalType": "bool",
          "name": "",
          "type": "bool"
        }
      ],
      "stateMutability": "view",
      "type": "function"
    },
    {
      "inputs": [],
      "name": "name",
      "outputs": [
        {
          "internalType": "string",
          "name": "",
          "type": "string"
        }
      ],
      "stateMutability": "view",
      "type": "function"
    },
    {
      "inputs": [
        {
          "internalType": "uint256",
          "name": "tokenId",
          "type": "uint256"
        }
      ],
      "name": "ownerOf",
      "outputs": [
        {
          "internalType": "address",
          "name": "",
          "type": "address"
        }
      ],
      "stateMutability": "view",
      "type": "function"
    },
    {
      "inputs": [
        {
          "internalType": "address",
          "name": "from",
          "type": "address"
        },
        {
          "internalType": "address",
          "name": "to",
          "type": "address"
        },
        {
          "internalType": "uint256",
          "name": "tokenId",
          "type": "uint256"
        }
      ],
      "name": "safeTransferFrom",
      "outputs": [],
      "stateMutability": "nonpayable",
      "type": "function"
    },
    {
      "inputs": [
        {
          "internalType": "address",
          "name": "from",
          "type": "address"
        },
        {
          "internalType": "address",
          "name": "to",
          "type": "address"
        },
        {
          "internalType": "uint256",
          "name": "tokenId",
          "type": "uint256"
        },
        {
          "internalType": "bytes",
          "name": "data",
          "type": "bytes"
        }
      ],
      "name": "safeTransferFrom",
      "outputs": [],
      "stateMutability": "nonpayable",
      "type": "function"
    },
    {
      "inputs": [
        {
          "internalType": "address",
          "name": "operator",
          "type": "address"
        },
        {
          "internalType": "bool",
          "name": "approved",
          "type": "bool"
        }
      ],
      "name": "setApprovalForAll",
      "outputs": [],
      "stateMutability": "nonpayable",
      "type": "function"
    },
    {
      "inputs": [
        {
          "internalType": "bytes4",
          "name": "interfaceId",
          "type": "bytes4"
        }
      ],
      "name": "supportsInterface",
      "outputs": [
        {
          "internalType": "bool",
          "name": "",
          "type": "bool"
        }
      ],
      "stateMutability": "view",
      "type": "function"
    },
    {
      "inputs": [],
      "name": "symbol",
      "outputs": [
        {
          "internalType": "string",
          "name": "",
          "type": "string"
        }
      ],
      "stateMutability": "view",
      "type": "function"
    },
    {
      "inputs": [
        {
          "internalType": "uint256",
          "name": "index",
          "type": "uint256"
        }
      ],
      "name": "tokenByIndex",
      "outputs": [
        {
          "internalType": "uint256",
          "name": "",
          "type": "uint256"
        }
      ],
      "stateMutability": "view",
      "type": "function"
    },
    {
      "inputs": [
        {
          "internalType": "address",
          "name": "owner",
          "type": "address"
        },
        {
          "internalType": "uint256",
          "name": "index",
          "type": "uint256"
        }
      ],
      "name": "tokenOfOwnerByIndex",
      "outputs": [
        {
          "internalType": "uint256",
          "name": "",
          "type": "uint256"
        }
      ],
      "stateMutability": "view",
      "type": "function"
    },
    {
      "inputs": [
        {
          "internalType": "uint256",
          "name": "tokenId",
          "type": "uint256"
        }
      ],
      "name": "tokenURI",
      "outputs": [
        {
          "internalType": "string",
          "name": "",
          "type": "string"
        }
      ],
      "stateMutability": "view",
      "type": "function"
    },
    {
      "inputs": [],
      "name": "totalSupply",
      "outputs": [
        {
          "internalType": "uint256",
          "name": "",
          "type": "uint256"
        }
      ],
      "stateMutability": "view",
      "type": "function"
    },
    {
      "inputs": [
        {
          "internalType": "address",
          "name": "from",
          "type": "address"
        },
        {
          "internalType": "address",
          "name": "to",
          "type": "address"
        },
        {
          "internalType": "uint256",
          "name": "tokenId",
          "type": "uint256"
        }
      ],
      "name": "transferFrom",
      "outputs": [],
      "stateMutability": "nonpayable",
      "type": "function"
    }
  ],
  "bytecode": "0x60806040523480156200001157600080fd5b5060405180604001604052806009815260200168141c9bdb5c1d13919560ba1b815250604051806040016040528060048152602001631413919560e21b81525081600090816200006291906200011f565b5060016200007182826200011f565b505050620001eb565b634e487b7160e01b600052604160045260246000fd5b600181811c90821680620000a557607f821691505b602082108103620000c657634e487b7160e01b600052602260045260246000fd5b50919050565b601f8211156200011a57600081815260208120601f850160051c81016020861015620000f55750805b601f850160051c820191505b81811015620001165782815560010162000101565b5050505b505050565b81516001600160401b038111156200013b576200013b6200007a565b62000153816200014c845462000090565b84620000cc565b602080601f8311600181146200018b5760008415620001725750858301515b600019600386901b1c1916600185901b17855562000116565b600085815260208120601f198616915b82811015620001bc578886015182559484019460019091019084016200019b565b5085821015620001db5787850151600019600388901b60f8161c191681555b5050505050600190811b01905550565b611cc380620001fb6000396000f3fe608060405234801561001057600080fd5b50600436106101165760003560e01c80636352211e116100a2578063a22cb46511610071578063a22cb46514610237578063b88d4fde1461024a578063c87b56dd1461025d578063cf37834314610270578063e985e9c51461028357600080fd5b80636352211e146101f657806370a08231146102095780638a1e8a3e1461021c57806395d89b411461022f57600080fd5b806318160ddd116100e957806318160ddd1461019857806323b872dd146101aa5780632f745c59146101bd57806342842e0e146101d05780634f6ccce7146101e357600080fd5b806301ffc9a71461011b57806306fdde0314610143578063081812fc14610158578063095ea7b314610183575b600080fd5b61012e61012936600461161f565b6102bf565b60405190151581526020015b60405180910390f35b61014b6102d0565b60405161013a919061168c565b61016b61016636600461169f565b610362565b6040516001600160a01b03909116815260200161013a565b6101966101913660046116d4565b610389565b005b6009545b60405190815260200161013a565b6101966101b83660046116fe565b6104a3565b61019c6101cb3660046116d4565b6104d4565b6101966101de3660046116fe565b61056a565b61019c6101f136600461169f565b610585565b61016b61020436600461169f565b610618565b61019c61021736600461173a565b610678565b61016b61022a366004611801565b6106fe565b61014b610755565b610196610245366004611836565b610764565b610196610258366004611872565b610773565b61014b61026b36600461169f565b6107ab565b61019c61027e3660046118ee565b6107b6565b61012e61029136600461193c565b6001600160a01b03918216600090815260056020908152604080832093909416825291909152205460ff1690565b60006102ca82610875565b92915050565b6060600080546102df9061196f565b80601f016020809104026020016040519081016040528092919081815260200182805461030b9061196f565b80156103585780601f1061032d57610100808354040283529160200191610358565b820191906000526020600020905b81548152906001019060200180831161033b57829003601f168201915b5050505050905090565b600061036d8261089a565b506000908152600460205260409020546001600160a01b031690565b600061039482610618565b9050806001600160a01b0316836001600160a01b0316036104065760405162461bcd60e51b815260206004820152602160248201527f4552433732313a20617070726f76616c20746f2063757272656e74206f776e656044820152603960f91b60648201526084015b60405180910390fd5b336001600160a01b038216148061042257506104228133610291565b6104945760405162461bcd60e51b815260206004820152603d60248201527f4552433732313a20617070726f76652063616c6c6572206973206e6f7420746f60448201527f6b656e206f776e6572206f7220617070726f76656420666f7220616c6c00000060648201526084016103fd565b61049e83836108fc565b505050565b6104ad338261096a565b6104c95760405162461bcd60e51b81526004016103fd906119a9565b61049e8383836109e9565b60006104df83610678565b82106105415760405162461bcd60e51b815260206004820152602b60248201527f455243373231456e756d657261626c653a206f776e657220696e646578206f7560448201526a74206f6620626f756e647360a81b60648201526084016103fd565b506001600160a01b03919091166000908152600760209081526040808320938352929052205490565b61049e83838360405180602001604052806000815250610773565b600061059060095490565b82106105f35760405162461bcd60e51b815260206004820152602c60248201527f455243373231456e756d657261626c653a20676c6f62616c20696e646578206f60448201526b7574206f6620626f756e647360a01b60648201526084016103fd565b60098281548110610606576106066119f6565b90600052602060002001549050919050565b6000818152600260205260408120546001600160a01b0316806102ca5760405162461bcd60e51b8152602060048201526018602482015277115490cdcc8c4e881a5b9d985b1a59081d1bdad95b88125160421b60448201526064016103fd565b60006001600160a01b0382166106e25760405162461bcd60e51b815260206004820152602960248201527f4552433732313a2061646472657373207a65726f206973206e6f7420612076616044820152683634b21037bbb732b960b91b60648201526084016103fd565b506001600160a01b031660009081526003602052604090205490565b6000600c826040516107109190611a0c565b90815260200160405180910390205460000361072e57506000919050565b6102ca600c836040516107419190611a0c565b908152602001604051809103902054610618565b6060600180546102df9061196f565b61076f338383610b5a565b5050565b61077d338361096a565b6107995760405162461bcd60e51b81526004016103fd906119a9565b6107a584848484610c28565b50505050565b60606102ca82610c5b565b6000600c826040516107c89190611a0c565b90815260200160405180910390205460001461081e5760405162461bcd60e51b815260206004820152601560248201527470726f6d707420616c72656164792065786973747360581b60448201526064016103fd565b61082c600b80546001019055565b6000610837600b5490565b905080600c8460405161084a9190611a0c565b908152604051908190036020019020556108648482610d72565b61086e8184610f0b565b9392505050565b60006001600160e01b0319821663780e9d6360e01b14806102ca57506102ca82610fd6565b6000818152600260205260409020546001600160a01b03166108f95760405162461bcd60e51b8152602060048201526018602482015277115490cdcc8c4e881a5b9d985b1a59081d1bdad95b88125160421b60448201526064016103fd565b50565b600081815260046020526040902080546001600160a01b0319166001600160a01b038416908117909155819061093182610618565b6001600160a01b03167f8c5be1e5ebec7d5bd14f71427d1e84f3dd0314c0f7b2291e5b200ac8c7c3b92560405160405180910390a45050565b60008061097683610618565b9050806001600160a01b0316846001600160a01b031614806109bd57506001600160a01b0380821660009081526005602090815260408083209388168352929052205460ff165b806109e15750836001600160a01b03166109d684610362565b6001600160a01b0316145b949350505050565b826001600160a01b03166109fc82610618565b6001600160a01b031614610a225760405162461bcd60e51b81526004016103fd90611a28565b6001600160a01b038216610a845760405162461bcd60e51b8152602060048201526024808201527f4552433732313a207472616e7366657220746f20746865207a65726f206164646044820152637265737360e01b60648201526084016103fd565b610a918383836001610ffb565b826001600160a01b0316610aa482610618565b6001600160a01b031614610aca5760405162461bcd60e51b81526004016103fd90611a28565b600081815260046020908152604080832080546001600160a01b03199081169091556001600160a01b0387811680865260038552838620805460001901905590871680865283862080546001019055868652600290945282852080549092168417909155905184937fddf252ad1be2c89b69c2b068fc378daa952ba7f163c4a11628f55a4df523b3ef91a4505050565b816001600160a01b0316836001600160a01b031603610bbb5760405162461bcd60e51b815260206004820152601960248201527f4552433732313a20617070726f766520746f2063616c6c65720000000000000060448201526064016103fd565b6001600160a01b03838116600081815260056020908152604080832094871680845294825291829020805460ff191686151590811790915591519182527f17307eab39ab6107e8899845ad3d59bd9653f200f220920489ca2b5937696c31910160405180910390a3505050565b610c338484846109e9565b610c3f84848484611007565b6107a55760405162461bcd60e51b81526004016103fd90611a6d565b6060610c668261089a565b60008281526006602052604081208054610c7f9061196f565b80601f0160208091040260200160405190810160405280929190818152602001828054610cab9061196f565b8015610cf85780601f10610ccd57610100808354040283529160200191610cf8565b820191906000526020600020905b815481529060010190602001808311610cdb57829003601f168201915b505050505090506000610d25604080518082019091526007815266697066733a2f2f60c81b602082015290565b90508051600003610d37575092915050565b815115610d69578082604051602001610d51929190611abf565b60405160208183030381529060405292505050919050565b6109e184611108565b6001600160a01b038216610dc85760405162461bcd60e51b815260206004820181905260248201527f4552433732313a206d696e7420746f20746865207a65726f206164647265737360448201526064016103fd565b6000818152600260205260409020546001600160a01b031615610e2d5760405162461bcd60e51b815260206004820152601c60248201527f4552433732313a20746f6b656e20616c7265616479206d696e7465640000000060448201526064016103fd565b610e3b600083836001610ffb565b6000818152600260205260409020546001600160a01b031615610ea05760405162461bcd60e51b815260206004820152601c60248201527f4552433732313a20746f6b656e20616c7265616479206d696e7465640000000060448201526064016103fd565b6001600160a01b038216600081815260036020908152604080832080546001019055848352600290915280822080546001600160a01b0319168417905551839291907fddf252ad1be2c89b69c2b068fc378daa952ba7f163c4a11628f55a4df523b3ef908290a45050565b6000828152600260205260409020546001600160a01b0316610f865760405162461bcd60e51b815260206004820152602e60248201527f45524337323155524953746f726167653a2055524920736574206f66206e6f6e60448201526d32bc34b9ba32b73a103a37b5b2b760911b60648201526084016103fd565b6000828152600660205260409020610f9e8282611b3c565b506040518281527ff8e1a15aba9398e019f0b49df1a4fde98ee17ae345cb5f6b5e2c27f5033e8ce79060200160405180910390a15050565b60006001600160e01b03198216632483248360e11b14806102ca57506102ca8261118a565b6107a5848484846111da565b60006001600160a01b0384163b156110fd57604051630a85bd0160e11b81526001600160a01b0385169063150b7a029061104b903390899088908890600401611bfc565b6020604051808303816000875af1925050508015611086575060408051601f3d908101601f1916820190925261108391810190611c39565b60015b6110e3573d8080156110b4576040519150601f19603f3d011682016040523d82523d6000602084013e6110b9565b606091505b5080516000036110db5760405162461bcd60e51b81526004016103fd90611a6d565b805181602001fd5b6001600160e01b031916630a85bd0160e11b1490506109e1565b506001949350505050565b60606111138261089a565b6000611139604080518082019091526007815266697066733a2f2f60c81b602082015290565b90506000815111611159576040518060200160405280600081525061086e565b806111638461130e565b604051602001611174929190611abf565b6040516020818303038152906040529392505050565b60006001600160e01b031982166380ac58cd60e01b14806111bb57506001600160e01b03198216635b5e139f60e01b145b806102ca57506301ffc9a760e01b6001600160e01b03198316146102ca565b60018111156112495760405162461bcd60e51b815260206004820152603560248201527f455243373231456e756d657261626c653a20636f6e7365637574697665207472604482015274185b9cd9995c9cc81b9bdd081cdd5c1c1bdc9d1959605a1b60648201526084016103fd565b816001600160a01b0385166112a5576112a081600980546000838152600a60205260408120829055600182018355919091527f6e1540171b6c0c960b71a7020d9f60077f6af931a8bbf590da0223dacf75c7af0155565b6112c8565b836001600160a01b0316856001600160a01b0316146112c8576112c885826113a1565b6001600160a01b0384166112e4576112df8161143e565b611307565b846001600160a01b0316846001600160a01b0316146113075761130784826114ed565b5050505050565b6060600061131b83611531565b600101905060008167ffffffffffffffff81111561133b5761133b611755565b6040519080825280601f01601f191660200182016040528015611365576020820181803683370190505b5090508181016020015b600019016f181899199a1a9b1b9c1cb0b131b232b360811b600a86061a8153600a850494508461136f57509392505050565b600060016113ae84610678565b6113b89190611c56565b60008381526008602052604090205490915080821461140b576001600160a01b03841660009081526007602090815260408083208584528252808320548484528184208190558352600890915290208190555b5060009182526008602090815260408084208490556001600160a01b039094168352600781528383209183525290812055565b60095460009061145090600190611c56565b6000838152600a602052604081205460098054939450909284908110611478576114786119f6565b906000526020600020015490508060098381548110611499576114996119f6565b6000918252602080832090910192909255828152600a909152604080822084905585825281205560098054806114d1576114d1611c77565b6001900381819060005260206000200160009055905550505050565b60006114f883610678565b6001600160a01b039093166000908152600760209081526040808320868452825280832085905593825260089052919091209190915550565b60008072184f03e93ff9f4daa797ed6e38ed64bf6a1f0160401b83106115705772184f03e93ff9f4daa797ed6e38ed64bf6a1f0160401b830492506040015b6d04ee2d6d415b85acef8100000000831061159c576d04ee2d6d415b85acef8100000000830492506020015b662386f26fc1000083106115ba57662386f26fc10000830492506010015b6305f5e10083106115d2576305f5e100830492506008015b61271083106115e657612710830492506004015b606483106115f8576064830492506002015b600a83106102ca5760010192915050565b6001600160e01b0319811681146108f957600080fd5b60006020828403121561163157600080fd5b813561086e81611609565b60005b8381101561165757818101518382015260200161163f565b50506000910152565b6000815180845261167881602086016020860161163c565b601f01601f19169290920160200192915050565b60208152600061086e6020830184611660565b6000602082840312156116b157600080fd5b5035919050565b80356001600160a01b03811681146116cf57600080fd5b919050565b600080604083850312156116e757600080fd5b6116f0836116b8565b946020939093013593505050565b60008060006060848603121561171357600080fd5b61171c846116b8565b925061172a602085016116b8565b9150604084013590509250925092565b60006020828403121561174c57600080fd5b61086e826116b8565b634e487b7160e01b600052604160045260246000fd5b600067ffffffffffffffff8084111561178657611786611755565b604051601f8501601f19908116603f011681019082821181831017156117ae576117ae611755565b816040528093508581528686860111156117c757600080fd5b858560208301376000602087830101525050509392505050565b600082601f8301126117f257600080fd5b61086e8383356020850161176b565b60006020828403121561181357600080fd5b813567ffffffffffffffff81111561182a57600080fd5b6109e1848285016117e1565b6000806040838503121561184957600080fd5b611852836116b8565b91506020830135801515811461186757600080fd5b809150509250929050565b6000806000806080858703121561188857600080fd5b611891856116b8565b935061189f602086016116b8565b925060408501359150606085013567ffffffffffffffff8111156118c257600080fd5b8501601f810187136118d357600080fd5b6118e28782356020840161176b565b91505092959194509250565b6000806040838503121561190157600080fd5b61190a836116b8565b9150602083013567ffffffffffffffff81111561192657600080fd5b611932858286016117e1565b9150509250929050565b6000806040838503121561194f57600080fd5b611958836116b8565b9150611966602084016116b8565b90509250929050565b600181811c9082168061198357607f821691505b6020821081036119a357634e487b7160e01b600052602260045260246000fd5b50919050565b6020808252602d908201527f4552433732313a2063616c6c6572206973206e6f7420746f6b656e206f776e6560408201526c1c881bdc88185c1c1c9bdd9959609a1b606082015260800190565b634e487b7160e01b600052603260045260246000fd5b60008251611a1e81846020870161163c565b9190910192915050565b60208082526025908201527f4552433732313a207472616e736665722066726f6d20696e636f72726563742060408201526437bbb732b960d91b606082015260800190565b60208082526032908201527f4552433732313a207472616e7366657220746f206e6f6e20455243373231526560408201527131b2b4bb32b91034b6b83632b6b2b73a32b960711b606082015260800190565b60008351611ad181846020880161163c565b835190830190611ae581836020880161163c565b01949350505050565b601f82111561049e57600081815260208120601f850160051c81016020861015611b155750805b601f850160051c820191505b81811015611b3457828155600101611b21565b505050505050565b815167ffffffffffffffff811115611b5657611b56611755565b611b6a81611b64845461196f565b84611aee565b602080601f831160018114611b9f5760008415611b875750858301515b600019600386901b1c1916600185901b178555611b34565b600085815260208120601f198616915b82811015611bce57888601518255948401946001909101908401611baf565b5085821015611bec5787850151600019600388901b60f8161c191681555b5050505050600190811b01905550565b6001600160a01b0385811682528416602082015260408101839052608060608201819052600090611c2f90830184611660565b9695505050505050565b600060208284031215611c4b57600080fd5b815161086e81611609565b818103818111156102ca57634e487b7160e01b600052601160045260246000fd5b634e487b7160e01b600052603160045260246000fdfea2646970667358221220955d14de5feb74dcb47209656f12f913354ef8c87ccbfb65f50aa88701c6646d64736f6c63430008140033",
  "linkReferences": {},
  "deployedLinkReferences": {}
}