{
  "_format": "hh-sol-artifact-1",
  "contractName": "DutchAuction",
  "sourceName": "contracts/auction.sol",
  "abi": [
    {
      "inputs": [
        {
          "internalType": "uint256",
          "name": "biddingTime",
          "type": "uint256"
        },
        {
          "internalType": "address payable",
          "name": "beneficiaryAddress",
          "type": "address"
        },
        {
          "internalType": "uint256",
          "name": "_tokenId",
          "type": "uint256"
        },
        {
          "internalType": "address payable",
          "name": "_organizer",
          "type": "address"
        },
        {
          "internalType": "address",
          "name": "contractAddress",
          "type": "address"
        }
      ],
      "stateMutability": "nonpayable",
      "type": "constructor"
    },
    {
      "inputs": [],
      "name": "AuctionAlreadyEnded",
      "type": "error"
    },
    {
      "inputs": [],
      "name": "AuctionEndAlreadyCalled",
      "type": "error"
    },
    {
      "inputs": [],
      "name": "AuctionNotYetEnded",
      "type": "error"
    },
    {
      "inputs": [
        {
          "internalType": "uint256",
          "name": "highestBid",
          "type": "uint256"
        }
      ],
      "name": "BidNotHighEnough",
      "type": "error"
    },
    {
      "anonymous": false,
      "inputs": [
        {
          "indexed": false,
          "internalType": "address",
          "name": "winner",
          "type": "address"
        },
        {
          "indexed": false,
          "internalType": "uint256",
          "name": "amount",
          "type": "uint256"
        }
      ],
      "name": "AuctionEnded",
      "type": "event"
    },
    {
      "anonymous": false,
      "inputs": [
        {
          "indexed": false,
          "internalType": "address",
          "name": "bidder",
          "type": "address"
        },
        {
          "indexed": false,
          "internalType": "uint256",
          "name": "amount",
          "type": "uint256"
        }
      ],
      "name": "HighestBidIncreased",
      "type": "event"
    },
    {
      "inputs": [],
      "name": "auctionEnd",
      "outputs": [],
      "stateMutability": "nonpayable",
      "type": "function"
    },
    {
      "inputs": [],
      "name": "auctionEndTime",
      "outputs": [
        {
          "internalType": "uint256",
          "name": "",
          "type": "uint256"
        }
      ],
      "stateMutability": "view",
      "type": "function"
    },
    {
      "inputs": [],
      "name": "auctionStartTime",
      "outputs": [
        {
          "internalType": "uint256",
          "name": "",
          "type": "uint256"
        }
      ],
      "stateMutability": "view",
      "type": "function"
    },
    {
      "inputs": [],
      "name": "beneficiary",
      "outputs": [
        {
          "internalType": "address payable",
          "name": "",
          "type": "address"
        }
      ],
      "stateMutability": "view",
      "type": "function"
    },
    {
      "inputs": [],
      "name": "bid",
      "outputs": [],
      "stateMutability": "payable",
      "type": "function"
    },
    {
      "inputs": [],
      "name": "decrementInterval",
      "outputs": [
        {
          "internalType": "uint256",
          "name": "",
          "type": "uint256"
        }
      ],
      "stateMutability": "view",
      "type": "function"
    },
    {
      "inputs": [],
      "name": "endingPrice",
      "outputs": [
        {
          "internalType": "uint256",
          "name": "",
          "type": "uint256"
        }
      ],
      "stateMutability": "view",
      "type": "function"
    },
    {
      "inputs": [],
      "name": "getBeneficiary",
      "outputs": [
        {
          "internalType": "address",
          "name": "",
          "type": "address"
        }
      ],
      "stateMutability": "view",
      "type": "function"
    },
    {
      "inputs": [],
      "name": "getCurrentPrice",
      "outputs": [
        {
          "internalType": "uint256",
          "name": "",
          "type": "uint256"
        }
      ],
      "stateMutability": "view",
      "type": "function"
    },
    {
      "inputs": [],
      "name": "getEndTime",
      "outputs": [
        {
          "internalType": "uint256",
          "name": "",
          "type": "uint256"
        }
      ],
      "stateMutability": "view",
      "type": "function"
    },
    {
      "inputs": [],
      "name": "getHighestBid",
      "outputs": [
        {
          "internalType": "uint256",
          "name": "",
          "type": "uint256"
        }
      ],
      "stateMutability": "view",
      "type": "function"
    },
    {
      "inputs": [],
      "name": "getHighestBidder",
      "outputs": [
        {
          "internalType": "address",
          "name": "",
          "type": "address"
        }
      ],
      "stateMutability": "view",
      "type": "function"
    },
    {
      "inputs": [
        {
          "internalType": "address",
          "name": "addr",
          "type": "address"
        }
      ],
      "name": "getPendingReturns",
      "outputs": [
        {
          "internalType": "uint256",
          "name": "",
          "type": "uint256"
        }
      ],
      "stateMutability": "view",
      "type": "function"
    },
    {
      "inputs": [],
      "name": "getTokenId",
      "outputs": [
        {
          "internalType": "uint256",
          "name": "",
          "type": "uint256"
        }
      ],
      "stateMutability": "view",
      "type": "function"
    },
    {
      "inputs": [],
      "name": "getWinner",
      "outputs": [
        {
          "internalType": "address",
          "name": "",
          "type": "address"
        }
      ],
      "stateMutability": "view",
      "type": "function"
    },
    {
      "inputs": [],
      "name": "highestBid",
      "outputs": [
        {
          "internalType": "uint256",
          "name": "",
          "type": "uint256"
        }
      ],
      "stateMutability": "view",
      "type": "function"
    },
    {
      "inputs": [],
      "name": "highestBidder",
      "outputs": [
        {
          "internalType": "address",
          "name": "",
          "type": "address"
        }
      ],
      "stateMutability": "view",
      "type": "function"
    },
    {
      "inputs": [],
      "name": "imgContract",
      "outputs": [
        {
          "internalType": "contract ImageNFT",
          "name": "",
          "type": "address"
        }
      ],
      "stateMutability": "view",
      "type": "function"
    },
    {
      "inputs": [],
      "name": "isEnded",
      "outputs": [
        {
          "internalType": "bool",
          "name": "",
          "type": "bool"
        }
      ],
      "stateMutability": "view",
      "type": "function"
    },
    {
      "inputs": [],
      "name": "organizer",
      "outputs": [
        {
          "internalType": "address payable",
          "name": "",
          "type": "address"
        }
      ],
      "stateMutability": "view",
      "type": "function"
    },
    {
      "inputs": [],
      "name": "priceDecrement",
      "outputs": [
        {
          "internalType": "uint256",
          "name": "",
          "type": "uint256"
        }
      ],
      "stateMutability": "view",
      "type": "function"
    },
    {
      "inputs": [],
      "name": "startingPrice",
      "outputs": [
        {
          "internalType": "uint256",
          "name": "",
          "type": "uint256"
        }
      ],
      "stateMutability": "view",
      "type": "function"
    },
    {
      "inputs": [],
      "name": "tokenId",
      "outputs": [
        {
          "internalType": "uint256",
          "name": "",
          "type": "uint256"
        }
      ],
      "stateMutability": "view",
      "type": "function"
    },
    {
      "inputs": [],
      "name": "withdraw",
      "outputs": [
        {
          "internalType": "bool",
          "name": "",
          "type": "bool"
        }
      ],
      "stateMutability": "nonpayable",
      "type": "function"
    }
  ],
  "bytecode": "0x60806040523480156200001157600080fd5b5060405162000bc838038062000bc8833981016040819052620000349162000160565b42600581905562000047908690620001de565b600155670de0b6b3a764000060065567016345785d8a000060075561012c6009819055600090620000799087620001fa565b905060008111620000da5760405162461bcd60e51b815260206004820152602160248201527f4475726174696f6e20746f6f2073686f727420666f722064656372656d656e746044820152607360f81b606482015260840160405180910390fd5b80600754600654620000ed91906200021d565b620000f99190620001fa565b60085550600280546001600160a01b039586166001600160a01b0319918216179091556004805493861693821693909317909255600392909255600080549290931691161790555062000233565b6001600160a01b03811681146200015d57600080fd5b50565b600080600080600060a086880312156200017957600080fd5b8551945060208601516200018d8162000147565b604087015160608801519195509350620001a78162000147565b6080870151909250620001ba8162000147565b809150509295509295909350565b634e487b7160e01b600052601160045260246000fd5b80820180821115620001f457620001f4620001c8565b92915050565b6000826200021857634e487b7160e01b600052601260045260246000fd5b500490565b81810381811115620001f457620001f4620001c8565b61098580620002436000396000f3fe60806040526004361061014a5760003560e01c80635a67a20d116100b6578063a4fd6f561161006f578063a4fd6f561461031b578063d57bde7914610333578063d6fbf20214610349578063eb54f9ec1461035f578063eb91d37e14610375578063f6a0584b1461038a57600080fd5b80635a67a20d1461028e57806361203265146102a457806383ffda3b146102c45780638e7ea5b21461014f57806391f90157146102e55780639b3e45b41461030557600080fd5b806338af3eed1161010857806338af3eed146101f05780633ccfd60b14610210578063439f5ac2146102305780634979440a146102455780634b449cba1461025a578063565a2e2c1461027057600080fd5b80623495a41461014f578063010a38f51461018657806317d70f7c146101a55780631998aeef146101bb57806326cddbfb146101c55780632a24f46c146101db575b600080fd5b34801561015b57600080fd5b50600a546001600160a01b03165b6040516001600160a01b0390911681526020015b60405180910390f35b34801561019257600080fd5b506003545b60405190815260200161017d565b3480156101b157600080fd5b5061019760035481565b6101c36103aa565b005b3480156101d157600080fd5b5061019760085481565b3480156101e757600080fd5b506101c361071a565b3480156101fc57600080fd5b50600254610169906001600160a01b031681565b34801561021c57600080fd5b5060015b604051901515815260200161017d565b34801561023c57600080fd5b50600154610197565b34801561025157600080fd5b50600b54610197565b34801561026657600080fd5b5061019760015481565b34801561027c57600080fd5b506002546001600160a01b0316610169565b34801561029a57600080fd5b5061019760075481565b3480156102b057600080fd5b50600454610169906001600160a01b031681565b3480156102d057600080fd5b506101976102df3660046108b7565b50600090565b3480156102f157600080fd5b50600a54610169906001600160a01b031681565b34801561031157600080fd5b5061019760095481565b34801561032757600080fd5b50600c5460ff16610220565b34801561033f57600080fd5b50610197600b5481565b34801561035557600080fd5b5061019760065481565b34801561036b57600080fd5b5061019760055481565b34801561038157600080fd5b50610197610825565b34801561039657600080fd5b50600054610169906001600160a01b031681565b60015442106103cc5760405163d02e774d60e01b815260040160405180910390fd5b600c5460ff16156103f05760405163d02e774d60e01b815260040160405180910390fd5b60006103fa610825565b90508034101561042557604051634e12c1bb60e01b8152600481018290526024015b60405180910390fd5b600a80546001600160a01b03191633908117909155600b829055600c805460ff191660011790556000546002546003546040516323b872dd60e01b81526001600160a01b0392831660048201526024810194909452604484015216906323b872dd90606401600060405180830381600087803b1580156104a457600080fd5b505af11580156104b8573d6000803e3d6000fd5b5050505060006103e8600b546103cf6104d191906108fd565b6104db919061091a565b9050600081600b546104ed919061093c565b6002546040519192506000916001600160a01b039091169084908381818185875af1925050503d806000811461053f576040519150601f19603f3d011682016040523d82523d6000602084013e610544565b606091505b50506004546040519192506000916001600160a01b039091169084908381818185875af1925050503d8060008114610598576040519150601f19603f3d011682016040523d82523d6000602084013e61059d565b606091505b505090508180156105ab5750805b6105e95760405162461bcd60e51b815260206004820152600f60248201526e151c985b9cd9995c8819985a5b1959608a1b604482015260640161041c565b6000600b54346105f9919061093c565b9050801561068b57604051600090339083908381818185875af1925050503d8060008114610643576040519150601f19603f3d011682016040523d82523d6000602084013e610648565b606091505b50509050806106895760405162461bcd60e51b815260206004820152600d60248201526c1499599d5b990819985a5b1959609a1b604482015260640161041c565b505b600b546040805133815260208101929092527ff4757a49b326036464bec6fe419a4ae38c8a02ce3e68bf0809674f6aab8ad300910160405180910390a1600a54600b54604080516001600160a01b03909316835260208301919091527fdaec4582d5d9595688c8c98545fdd1c696d41c6aeaeb636737e84ed2f5c00eda910160405180910390a1505050505050565b6002546001600160a01b031633146107855760405162461bcd60e51b815260206004820152602860248201527f6f6e6c79207468652062656e65666963696172792063616e20656e64207468656044820152671030bab1ba34b7b760c11b606482015260840161041c565b6001544210156107a85760405163044cee2960e41b815260040160405180910390fd5b600c5460ff16156107cc57604051630c39fb9f60e31b815260040160405180910390fd5b600c805460ff19166001179055600a54600b54604080516001600160a01b03909316835260208301919091527fdaec4582d5d9595688c8c98545fdd1c696d41c6aeaeb636737e84ed2f5c00eda910160405180910390a1565b600c5460009060ff161561083a5750600b5490565b600154421061084a575060075490565b60006005544261085a919061093c565b905060006009548261086c919061091a565b905060008160085461087e91906108fd565b9050600754600654610890919061093c565b81106108a157600754935050505090565b806006546108af919061093c565b935050505090565b6000602082840312156108c957600080fd5b81356001600160a01b03811681146108e057600080fd5b9392505050565b634e487b7160e01b600052601160045260246000fd5b8082028115828204841417610914576109146108e7565b92915050565b60008261093757634e487b7160e01b600052601260045260246000fd5b500490565b81810381811115610914576109146108e756fea264697066735822122073f0506fa13b59238898b39a2585a994e872adcab9331d4cc775fbdc15cda4fe64736f6c63430008140033",
  "linkReferences": {},
  "deployedLinkReferences": {}
}